:020000040000fa
:10200000f8ff0320692c0000e1310000e3310000fb
:10201000e7310000e9310000eb3100000000000072
:10202000000000000000000000000000fb2f000086
:10203000e531000000000000fb2f0000fb2f000036
:10204000fb2f0000fb2f0000fb2f0000fb2f0000e8
:10205000fb2f0000fb2f0000fb2f0000fb2f0000d8
:10206000fb2f0000fb2f0000fb2f0000a53000001d
:10207000fb2f0000fb2f0000fb2f0000fb2f0000b8
:10208000fb2f0000fb2f0000fb2f0000fb2f0000a8
:10209000fb2f0000fb2f0000fb2f0000fb2f000098
:1020a000fb2f0000fb2f0000fb2f0000fb2f000088
:1020b000fb2f0000fb2f0000fb2f0000fb2f000078
:1020c000fb2f0000fb2f0000fb2f0000fb2f000068
:1020d000fb2f0000fb2f0000fb2f0000fb2f000058
:1020e000fb2f0000fb2f000000000000000000009c
:1020f00000000000fb2f0000fb2f0000fb2f000062
:10210000fb2f0000fb2f0000fb2f0000fb2f000027
:10211000fb2f0000fb2f0000fb2f0000fb2f000017
:10212000fb2f0000fb2f0000fb2f0000fb2f000007
:10213000fb2f0000fb2f0000fb2f0000fb2f0000f7
:10214000fb2f0000fb2f0000fb2f0000fb2f0000e7
:10215000fb2f0000fb2f000000000000000000002b
:10216000000000000000000000000000000000006f
:10217000000000000000000045260000fb2f0000ca
:10218000fb2f0000fb2f0000fb2f0000fb2f0000a7
:1021900000000000fb2f0000fb2f0000fb2f0000c1
:1021a000fb2f0000fb2f0000fb2f0000fb2f000087
:1021b000fb2f0000fb2f0000fb2f0000fb2f000077
:1021c000fb2f0000fb2f0000fb2f0000fb2f000067
:1021d000fb2f0000fb2f0000fb2f0000fb2f000057
:1021e000fb2f0000fb2f0000fb2f0000fb2f000047
:1021f000fb2f0000fb2f0000fb2f0000fb2f000037
:10220000fb2f00000000000000000000fb2f00007a
:10221000fb2f0000fb2f0000fb2f0000fb2f000016
:10222000fb2f0000fb2f0000fb2f0000fb2f000006
:10223000fb2f0000fb2f0000fb2f0000fb2f0000f6
:10224000fb2f0000fb2f0000fb2f0000fb2f0000e6
:10225000fb2f0000fb2f0000fb2f0000fb2f0000d6
:020000040000fa
:10226000f8b500bff8bc08bc9e467047652f00005b
:10227000f8b500bff8bc08bc9e467047412f00006f
:020000040000fa
:1022800070b582b0af4b1b78a3b9af4b1b78002b56
:1022900040f06c81ad4b1b78002b40f06e81ac4b55
:1022a0001b78002b00f06781a94b00221a7000f008
:1022b000ddfe60e1a34b00221a70a64b1b7b082bae
:1022c00005d1a44c221d04f10c05002103e000f00f
:1022d000b1fe50e1194612f8010b80ea0103dbb2ae
:1022e000aa42f7d188421ed19a4b1b799a4a12789a
:1022f0009a421bd0984a1370964b03f11402191d91
:1023000003c982e803005b79013b092b31d8dfe880
:1023100013f02a00480052005b0074008d00a500f5
:10232000bd001000d50000f085fe24e100f082fe23
:1023300021e18a4b93f8703973b1894a0023894ea1
:10234000a2f24c6552f8040f316841f823000133c2
:1023500095f870198b42f5db824b1b684ff05a32af
:10236000c3f8fc2305e07d4bd3f80120794bc3f87b
:1023700017207d4b04f11b00002113f8012b514065
:102380008342fad1734ad176744b187800230093b4
:102390001432082100f5a07000f074fb00f04afe32
:1023a000e9e06e4bd3f805106a4ac2f81710002214
:1023b0005a719a71dde7674a684b53f8091fc2f8f2
:1023c00016101b799376d4e7624b9b79634a92f897
:1023d0002e239a4209d90233604a02eb8303d3f8d1
:1023e00006205c4bc3f81720c3e75a4b00225a75ee
:1023f00004229a750122da75bbe7564b9b79574a3e
:1024000092f84f269a4209d9ca33544a02eb830301
:10241000d3f807204f4bc3f81720aae74d4b0022f3
:102420005a7505229a750122da75a2e7494b9b7904
:102430004a4a92f870299a4208d903f5ca73474a62
:1024400052f82320434bc3f8172092e7414b002258
:102450005a7506229a750122da758ae73d4b9b79f7
:102460003e4a92f84f269a4208d93a4ad2f81710b3
:102470003a4a02eb8303c3f82f137ae7354b002265
:102480005a7507229a750122da7572e7314b9b79ea
:10249000324a92f870299a4208d903f5ca732d4a34
:1024a000d2f817102d4a42f8231062e7294b002278
:1024b0005a7508229a750122da755ae7274bd3f824
:1024c00074692eb3234b987928b1244b9b7a012b46
:1024d0002ed0224b5872214d0423ab720023eb7295
:1024e0002b731c498b7a00934b7a0a7ac979b047cf
:1024f000ab7a032b03d90322aa7205226a73154a09
:10250000164b53f8091fc2f816101b79937630e763
:10251000104a91795972032199720021d972197365
:1025200004215973d3f80930c2f81630917620e7a8
:10253000084b0322da7500221a765a7601229a761f
:1025400017e700bf770a0020760a0020750a0020ee
:10255000740a0020200a0020720a002010000020c7
:102560005c060020680a0020340a00202f4b00225d
:102570001a7000f05ffd02b070bd2d4b00221a7082
:102580002c4b1b7b082b18d12a4b03f11402191d6d
:1025900003c982e803001b79012b11d0022b2fd035
:1025a000254b187800230093244a082100f58070f9
:1025b00000f068fa00f05afddde700f057fddae7b9
:1025c0001d4b93f87c3973b91a4b00225a759a75d2
:1025d000da751a76174b184a5178597691789976a8
:1025e000d278da76dce7134b02225a75124ad2f817
:1025f0007829117999755179d97592791a76e9e71f
:102600000d4b93f87c393bb90a4bff221a75022215
:102610005a7500229a75c3e7074b012283f87d297a
:102620000021074800f0b2fdbae700bf760a00209b
:10263000750a0020000a002010000020140a002063
:042640005d2e00000b
:020000040000fa
:102644002de9f04784b04ff084431c6d14f0007ff3
:102654001cbf4ff000721a6514f0010f63d04ff0e5
:10266400844301221a655a6d22f001025a65d3f897
:10267400a43013f07f0f56d04ff08443d3f8a45006
:10268400c5f305252b01854ad268d718d15811f016
:10269400804fd15805eb8500814e56f8200014bfb9
:1026a40021f06041c1f38a410160d2587b6813f480
:1026b400001f03d112f0005f40f0e68005eb8503b4
:1026c400774a02eb83031b6900221a707e68754bfc
:1026d4000fcb0df1100c0ce90f00c6f30346664452
:1026e40016f810ac6e4e4fea850808eb050906eba8
:1026f4008909524607f10801d9f8040000f02afdbf
:10270400d9f8083083f800a0d9f80c300bb17a68f6
:102714001a804ff08443c3f8a850634b1b6813b16d
:10272400614a5068984714f0100f67d04ff0844303
:1027340010221a655a6d22f010025a65d3f8b4308b
:1027440013f07f0f5ad04ff08443d3f8b450c5f33d
:1027540005252b01514a1269d718d15811f0804f21
:10276400d05805f1010101eb81014d4e56f821606d
:1027740014bf20f06040c0f38a403060d2587b68b8
:1027840013f4001f02d112f0005f74d105eb85032e
:10279400434a02eb83035b6a00221a707e68414b52
:1027a4000fcb0df1100c0ce90f00c6f30346664481
:1027b40016f8108c3a4e6b1c03eb830306eb830371
:1027c400424607f10801586800f0c4fcab005a19ee
:1027d40006eb8202d26982f800802b4406eb830662
:1027e400336a0bb17a681a804ff08443c3f8b85047
:1027f4002d4b9b6813b12c4ad068984714f4007f82
:1028040020d04ff084434ff400721a655a6d22f4bd
:1028140000725a65d3f8d820d3f8e03013f0010fd2
:102824000ad012f0010f07d04ff08442d2f8e03002
:1028340023f00103c2f8e0301b4b9b6913b11a4a21
:10284400d069984714f4006f12d04ff084424ff4cb
:1028540000631365d2f8c430c3f30423d2f8c42050
:10286400c2f30442934203d20133dbb29a42fbd156
:1028740004b0bde8f08705eb8503094a02eb830346
:102884005b6a01221a7089e705eb8503044a02ebaf
:1028940083031b6901221a7018e700bf9009002006
:0c28a400b80900209c310000e009002071
:020000040000fa
:1028b000400a00201c00000000000000e009002089
:1028c0002000000000000000900900202800000007
:1028d00000000000b80900202800000000000000ef
:1028e000700a00200100000000000000710a0020b2
:1028f00001000000000000005c0a00200c00000045
:1029000000000000000a002020000000000000007d
:10291000200a00202000000000000000100000201d
:102920008009000000000000720a00200100000081
:1029300000000000730a00200100000000000000f9
:10294000740a00200100000000000000750a002049
:102950000100000000000000760a002001000000d5
:1029600000000000770a00200100000000000000c5
:10297000680a00200400000001000000000000447c
:102980006c0a0020040000000000000000000000ad
:10299000000000002222222222222222222222229f
:020000040000fa
:1029a000304b00221a7403f500632f4a9a621a46cc
:1029b000536813f0100ffbd12c4b2d4a1a631a46a3
:1029c000536813f0400ffbd1284b4222c3f88420f8
:1029d0001a46d2f8843013f0400ffad0254b00226b
:1029e0009a6377225a631a46d36b13f0040ffbd114
:1029f000204b022283f830201a46d36b13f0020fcb
:102a0000fbd11c4a136c03f00303032bfad11a4bbe
:102a100001225a711a46d37813f0010ffbd0134be1
:102a2000164a1a621a46536813f0040ffbd10f4b73
:102a3000134a5a621a46536813f0080ffbd10b4b26
:102a40004422c3f8ec201a46d2f8ec3013f0400fc1
:102a5000fad0094b6ff07f421a6140f2ff725a615f
:102a6000704700bf0014004006013000001c004009
:102a700006010200001000400008004007010100ac
:042a80000701020048
:020000040000fa
:102a8400f8b59df818c0bcf1010f01d90020f8bdbc
:102a94004ff08443d3f8c43013f4001f3fd14ff0f8
:102aa4008443d3f8c440c4f3044426011d4b9f69f6
:102ab400bd19b0f5006f26bf20f0604040f08040a3
:102ac4008004b8510b46082928bf082318046860fd
:102ad4001cf0fd0f1ed111461a4605f1080000f046
:102ae40039fb114a13780133dbb213706a6842ea86
:102af400036343f400036b60012000fa04f44ff015
:102b04008443c3f8e040c3f8d0405a6d42f40072e5
:102b14005a65bce7bb5943f00053bb51e1e70020c1
:0c2b2400b5e700bf90090020700a0020f7
:020000040000fa
:102b3000264b274a1a60062183f8421083f8431077
:102b4000402283f8442083f8452083f8462083f808
:102b5000472083f8482083f8492083f84a2083f8e7
:102b60004b2083f84c2083f84d2083f84e2083f8c7
:102b70004f2083f8502083f8512083f8522083f8a7
:102b8000532083f8541083f85510012083f8560021
:102b900083f85700882083f83b000e48c3f8800074
:102ba00083f8c01083f8c11083f8c21083f8c310f3
:102bb00083f8cc2083f8cd2083f8ce2083f8cf2073
:102bc00083f8d71083f8df20704700bf00800041f2
:082bd000f0ff0f0000f000808f
:020000040000fa
:102bd800f0b59df814401cb1012c1fd00020f0bda9
:102be8004ff0844cdcf8a450c5f305251b4cae000f
:102bf8007719bf0004eb070ee051cef80420cef899
:102c08000810cef80c30069bcef81030dcf85430a3
:102c180043f00103ccf854300120e0e74ff084473b
:102c2800d7f8b450c5f305250c4c05f1010c4fea53
:102c38008c0606eb0c0e44f82e0004eb8e06726030
:102c4800aa00501904eb8000c1610362069b43622d
:102c58007b6d43f010037b650120c0e7b8090020b5
:020000040000fa
:102c680008b51b4b98471b4b9847eff3108172b67a
:102c7800194ad2f8883043f47003c2f88830bff399
:102c88004f8fbff36f8f01b962b6144c2023636076
:102c980000f02ef8124b23f07f030f4a9360114b7c
:102ca8009847a36823f00103a3602346da6812f06b
:102cb800010ffbd1094b5a6842f004025a60012205
:102cc8009a60094b9847094b984700f095f8fee73a
:102cd800ed310000ed31000000ed00e00060004142
:102ce80000200000b52e0000ed310000ed3100009d
:020000040000fa
:102cf8001e4b1f4a9342f0b438bf002103d203f899
:102d0800011b9342fbd11b4ad2e9000150ea01039f
:102d18004ff0000610d09468034602f10c076cb916
:102d280021b1014403f8016b9942fbd13a46d2e93b
:102d3800000150ea0103eed1f0bc704759b101f12e
:102d48000c030c38801a1a443b461c1813f8015b14
:102d580025709342f9d111f0030318bf012303eb47
:102d6800910107eb81073a46e1e700bf1000002018
:082d780010000020b02800004b
:020000040000fa
:102d800038b54ff0844301229a611a46936913f0d3
:102d9000010ffbd04ff084439a6942f002029a611e
:102da000144ada612a22c3f8802001221a629a6941
:102db00022f001029a611a46936913f0010ffbd1c8
:102dc0004ff0844300249c650122da654ff00072c5
:102dd0005a65094d2c606c60ac602822214607487a
:102de00000f0ecf9ec602c616c61ac61ec612c6280
:102df0006c6238bd0510000a90090020b809002057
:020000040000fa
:102e000008b5002000f08af90021114800f0def931
:102e100000f0b0f90f4c104d4ff0004600f0dcf917
:102e2000237813f0010f04d023f001032370c5f8b9
:102e30009c60237813f0020f1cbf23f00203237061
:102e4000237813f0040fe9d023f004032370e3e7a1
:0c2e5000fd2f0000710a002000800041ee
:020000040000fa
:102e5c00124b93f87d3903b97047104b002283f85d
:102e6c007d29d3f8782901211170d3f87829022112
:102e7c005170d3f8782903219170d3f87839042252
:102e8c00da70bff34f8f0649ca6802f4e062054b53
:102e9c001343cb60bff34f8f00bffde71000002042
:082eac0000ed00e00400fa054e
:020000040000fa
:102eb40070b50d4d0d4c641ba4100026a64209d11b
:102ec4000b4d0c4cfff7caf9641ba4100026a64254
:102ed40005d170bd55f8043b98470136eee755f827
:102ee400043b98470136f2e76c2200006c22000094
:082ef4006c22000070220000b6
:020000040000fa
:102efc000f4b01221a801a46136913f0010ffbd1f4
:102f0c000b4b4ff401421a8000221a621a461369c5
:102f1c0013f0200ffbd1064b00225a621a4613699c
:102f2c0013f0400ffbd1024b83225a81704700bf34
:042f3c00002400402d
:020000040000fa
:102f400010b5054c237833b9044b13b10448aff3e3
:102f500000800123237010bd400a00200000000003
:102f60000000000008b5034b1bb103490348aff351
:102f7000008008bd00000000440a0020000000009e
:020000040000fa
:102f80000d4ad36823f4e0631b041b0c43f0bf63ba
:102f900043f40033d360bff35f8f62b6074be02288
:102fa00083f80b234ff40061196083f84e234ff42c
:102fb00080429a60704700bf00ed00e000e100e051
:020000040000fa
:102fc0004ff08443586c20f4605020f01800400407
:102fd000400c9b6913f0010f0ed04ff084439a69a7
:102fe00042f002029a619a6922f001029a611a463d
:0a2ff000936913f0010ffbd1704745
:020000040000fa
:022ffa00fee7f0
:020000040000fa
:102ffc0010f0010f04d00b4a137843f00203137046
:10300c0010f0020f04d0074a137843f00403137036
:10301c0010f0800f04d0034a137843f001031370af
:08302c00704700bf710a00208b
:020000040000fa
:1030340000b583b000221146084800f07df8084826
:10304400084b01930023009300f10e03021d00f1cd
:103054000c01fff7bffd03b05df804fbcd300000a9
:08306400200a0020730a00207d
:020000040000fa
:10306c0000b583b001220021084800f061f808483f
:10307c00084b01930123009300f10e03021d00f194
:10308c000c01fff7a3fd03b05df804fbf530000065
:08309c00000a0020730a002065
:020000040000fa
:1030a40008b5074a908980b2064b58604cf2ff314c
:1030b40091811b6813b1034a9168984708bd00bf0a
:0830c400002400405c0a00201a
:020000040000fa
:1030cc0008b5fff777ff10f0070005d0072803d0ed
:1030dc00034b01221a7002e0024b01221a7008bd48
:0830ec00760a0020770a00209b
:020000040000fa
:1030f40008b5fff763ff10f0070005d0072803d0d9
:10310400034b01221a7002e0024b01221a7008bd1f
:08311400740a0020750a002076
:020000040000fa
:10311c0008b500f045f8fff705fdfff73bfc00f0a4
:10312c0060f8fff727fefff7e3fefff723ff08bd6c
:020000040000fa
:10313c0010b428b1044b43f8320003ebc2035960be
:0c314c005df8044b704700bfe009002054
:020000040000fa
:103158000a44914200f1ff3300d1704710b511f8cd
:0c316800014b03f8014f9142f9d110bd5a
:020000040000fa
:10317400044a138843f002031380136913f0020f07
:08318400fbd17047002400405c
:020000040000fa
:10318c0010b1024b9861d961704700bfe009002073
:020000040000fa
:10319c000001020304050607080c10141820304027
:020000040000fa
:1031ac00024b40f204521a80704700bf00400041ad
:020000040000fa
:1031bc0002440346934200d1704703f8011bf9e720
:020000040000fa
:0c31cc00014b1860996070475c0a0020fd
:020000040000fa
:0831d80008b5fff751f808bd2e
:020000040000fa
:0231e000fee708
:020000040000fa
:0231e200fee706
:020000040000fa
:0231e400fee704
:020000040000fa
:0231e600fee702
:020000040000fa
:0231e800fee700
:020000040000fa
:0231ea00fee7fe
:020000040000fa
:0231ec0070472a
:020000040000fa
:0231ee00704728
:020000040000fa
:0200000400807a
:044000003912003c35
:020000040000fa
:0200000400807a
:044004009100a82a55
:020000040000fa
:0200000400807a
:04400800ffffffffb8
:00000001FF
